:020000040800F2
:1000000030B102208D0200089D310008B1020008C5
:100010009B310008750C00087D37000800000000C7
:10002000000000000000000000000000D5010008F2
:10003000A10C00080000000029020008BF310008E0
:10004000A7020008A7020008A7020008A7020008EC
:10005000A7020008A7020008A7020008A7020008DC
:10006000A7020008A7020008A7020008A7020008CC
:10007000A7020008A7020008A7020008A7020008BC
:10008000A7020008A7020008A7020008A7020008AC
:10009000A7020008A7020008A7020008A70200089C
:1000A000A7020008A7020008A7020008A70200088C
:1000B000A7020008A7020008A7020008A70200087C
:1000C000A7020008A7020008A7020008A70200086C
:1000D000A7020008A7020008A7020008A70200085C
:1000E000A7020008A7020008A7020008A70200084C
:1000F000A7020008A7020008A7020008A70200083C
:10010000A7020008A7020008A7020008A70200082B
:10011000A7020008A7020008A7020008A70200081B
:10012000A7020008A7020008A7020008A70200080B
:10013000A7020008F50C0008A7020008A7020008A3
:10014000A7020008A7020008A7020008A7020008EB
:10015000A7020008A7020008A7020008A7020008DB
:10016000A7020008A7020008A7020008A7020008CB
:10017000A7020008A7020008A7020008000000006C
:10018000A7020008A7020008A7020008A7020008AB
:10019000A7020008A7020008A7020008A70200089B
:1001A000A7020008A7020008A7020008DFF810D085
:1001B00000F084FB00480047D5F20008AFF3008050
:1001C00030B10220EFF308807047EFF309807047E9
:1001D000684670472A4B19680868B0E8F04F80F30A
:1001E0000988BFF36F8F4FF0000080F311887047CC
:1001F0000000000006480068006880F3088862B6C6
:1002000061B6BFF34F8FBFF36F8F00DF00BF00BF3A
:1002100008ED00E0DFF80C00016841F470010160B6
:10022000704700BF88ED00E0EFF30980BFF36F8FE8
:10023000134B1A681EF0100F08BF20ED108A20E93A
:10024000F04F106008B44FF0500080F31188BFF3F6
:100250004F8FBFF36F8F37F035FC4FF0000080F306
:10026000118808BC19680868B0E8F04F1EF0100F3C
:1002700008BFB0EC108A80F30988BFF36F8F704716
:1002800018000020EFF30580704700000648804703
:1002900006480047FEE7FEE7FEE7FEE7FEE7FEE76B
:1002A000FEE7FEE7FEE7FEE78D320008AD0100083D
:1002B0007046694605F032F8FFF7FEFF2DE9F05F62
:1002C0000546002092469B468846064681464024C5
:1002D0001BE0284641464746224600F0EFF85346C9
:1002E0005A46C01A914110D311461846224600F0D2
:1002F00016F82D1A67EB01084F462246012000210F
:1003000000F00DF817EB00094E41201EA4F1010486
:10031000DFDC484631462A464346BDE8F09F202AA6
:1003200004DB203A00FA02F1002070479140C2F14C
:10033000200320FA03F319439040704700487047A8
:1003400004E70308A0F14101192900D820307047C3
:100350000649074A0868504343F2390210440860CE
:1003600040087047014908607047000034020020CF
:100370006D4EC64110B5431A934209D283188818AE
:1003800003E010F8011D03F8011D521EF9D210BD43
:1003900040EA01039B0703D009E008C9121F08C007
:1003A000042AFAD203E011F8013B00F8013B521E87
:1003B000F9D210BDD2B201E000F8012B491EFBD2E8
:1003C00070470022F6E710B513460A460446194660
:1003D000FFF7F0FF204610BD30B505462A460B4614
:1003E00012F8010B13F8014B08B1A042F8D01CB170
:1003F000002802D06D1CF1E7284630BD10B5044638
:1004000004E00B7800F8013B03B1491C521EF8D2FE
:10041000204610BD421C10F8011B0029FBD1801A98
:10042000704730B504460020034600E05B1C934251
:1004300003D2E05CCD5C401BF8D030BD30B5054642
:100440000020034600E05B1C934205D2EC5CC85CD4
:10045000201A01D1002CF6D130BD10B54843044616
:100460000EF05AFF002805D00021002C02D0641E97
:100470000155FAE710BD70B5064603F0EBF90468C4
:1004800005460A220021304600F028F82C6070BD95
:1004900030B50B46014600202022012409E021FA54
:1004A00002F59D4205D303FA02F5491B04FA02F551
:1004B0002844151EA2F10102F1DC30BD202A04DB24
:1004C000203A21FA02F00021704721FA02F3D040CD
:1004D000C2F1200291400843194670472DE9F047C8
:1004E00091460F4680460446002614F8015B2DB164
:1004F000FFF724FF0068405DC007F6D12B2D02D026
:100500002D2D18D0641E4A463946204600F0FAF9CF
:1005100027B13968A14201D1C7F8008071054FF0B9
:1005200002040BD54042002803DD03F093F9046078
:10053000A007BDE8F08746F48066E4E70028F8DA13
:1005400003F088F904606FF00040F2E72DE9FE4FF8
:10055000804681EA0300C00F0C46009021F0004164
:1005600023F00045B8EB0200A94105D240462146E0
:1005700090461C460B46024623F00040104347D0ED
:10058000270DC7F30A00C3F30A510290401A0190E5
:1005900040286BDAC3F3130040F4801B00989246A6
:1005A00020B10023D2EB030A63EB0B0B01985946F1
:1005B000C0F140025046FFF7B2FE06460D465046D7
:1005C0005946019A00F08CF910EB080061410024B3
:1005D00087EA115284EAE7731A4340D0009A62B363
:1005E000019A012A4FEA075215DC001B61EB020158
:1005F0004FF0004202EA0752CDE90042001C41F5EB
:10060000801132462B4600F0DBF903B0BDE8F08FD5
:1006100040462146F9E7001B61EB0201001C41F551
:10062000801300185B412018A2F5001747EB030167
:1006300040EAD570B6196D4111E06D084FEA3606F3
:1006400045EAC0754FEA0752001B61EB0201001C2E
:1006500041F5801149084FEA3000001951413246F6
:100660002B4603B0BDE8F04F00F09BB90098012283
:1006700040000023D0EB020263EBE07300982146B8
:100680004FEAE074B8EB000061EB0401E9E783F0A6
:1006900000435BE781F0004158E72DE9FE4F81EA16
:1006A000030404F0004421F0004100944FF0000BDB
:1006B00023F0004350EA01045ED052EA03045BD009
:1006C000C3F30A54C1F30A552C44A4F2F334019441
:1006D000A0FB0254C1F3130141F48011C3F31303CF
:1006E00043F4801301FB024400FB034E840A970A83
:1006F00044EA815447EA8357A4FB076802958D0AB0
:1007000005FB07854FEA932C04FB0C542705029D3B
:100710004FEA065847EA1637B5EB08056EEB070CAB
:10072000870E920E47EA811742EA8312A7FB020165
:10073000B6EB0B0164EB00042B0D43EA0C335E189F
:1007400044EB1C50DA465146E7FB0201C5F31304A3
:100750004FEA0B3343EA14534FEA0432019C43EA55
:100760000603A4F10C040294009CCDE900B400F04F
:1007700027F903B0BDE8F08F00200146F9E72DE925
:10078000F04D81EA030404F0004B21F000451446CB
:100790004FF0000A23F0004150EA050220D054EA4D
:1007A00001021DD0C5F30A570246C5F31303C1F376
:1007B0001300C1F30A5640F4801543F48013A7EBED
:1007C0000608101BD64608F2FD3873EB050002D36D
:1007D00008F1010801E092185B41B8F1000F03DA5B
:1007E00000200146BDE8F08D00204FF48011064640
:1007F00084460EE0171B73EB050705D3121B63EB52
:10080000050306434CEA010C49084FEA30009218F0
:100810005B4150EA0107EDD152EA030012D082EAAF
:10082000040083EA0501084305D0101BAB4106D242
:100830000122002306E000224FF0004302E06FF0A7
:10084000010253101AEB06004CEB085110EB0A00A2
:1008500041EB0B01BDE8F04D00F0A3B8C1F30A5223
:10086000C1F3130140F2FF3341F480119A4202DADE
:1008700000200146704740F233439A42A2F23342CD
:1008800002DC5242FFF71ABEFFF749BD30B5041E25
:1008900071F1000404DB4FF00044404264EB0101BD
:1008A000141E73F1000405DB1C464FF00043524256
:1008B00063EB0403994208BF904230BD064C074DDC
:1008C00006E0E06840F0010394E807009847103420
:1008D000AC42F6D3FFF76EFC081F0408281F04087B
:1008E000202A06DBCB17203A41FA02F043EAE073F4
:1008F00006E041FA02F3D040C2F1200291400843E1
:10090000194670472DE9F05F8246007800271546AA
:100910008B460AF10104B946302801D09DB113E09D
:1009200014F8010B0127782803D0582801D045B1CD
:100930000AE00DB1102D07D10027102514F8010B86
:1009400002E0082500E00A250026B0460EE005FB7F
:10095000080005FB06F1012701EB10461FFA80F89D
:10096000B6F5803F00D3B94614F8010B294600F0D4
:1009700075F80028EBDABBF1000F05D00FB1641E4B
:1009800000E05446CBF80040B9F1000F06D002F069
:1009900061FF02210160C81EBDE8F09F48EA0640E1
:1009A000FAE710B5141E73F1000408DA401C41F197
:1009B000000192185B411A4301D120F0010010BDE3
:1009C0002DE9F04D92469B4611B1B1FA81F202E059
:1009D000B0FA80F220329046FFF7A1FC04460F46A1
:1009E00040EA0A0041EA0B0153465A46084313D035
:1009F000114653EA010019D0C8F140025046FFF7F2
:100A00005DFD05460E46504659464246FFF787FCB7
:100A1000084305D0012004E020463946BDE8F08DAA
:100A20000020054346EAE0762C4337430A986305E5
:100A3000E40AA0EB08000022FD0A44EA47540A3009
:100A400002D500200146E9E7010510196941DDE9F9
:100A5000084500196941BDE8F04DA2E73A2800D2E7
:100A6000303820F02002412A01D3A2F13700884219
:100A700001D34FF0FF30704770B58C1810F8015B50
:100A800015F0070301D110F8013B2A1106D110F827
:100A9000012B03E010F8016B01F8016B5B1EF9D12B
:100AA0002B0705D40023521E0DD401F8013BFAE7B1
:100AB00010F8013BCB1A921C03E013F8015B01F81C
:100AC000015B521EF9D5A142D8D3002070BD0000B1
:100AD00010B501F06FF900F0B5F902F085FB01F0F7
:100AE000F9FF00F0C9F805A206A108A004F04AFD2C
:100AF000BDE8104007A002F055BE000056302E3170
:100B00002E30000056312E302E30000059482D4630
:100B1000343239002D2D2D2D2D2D2D2D2D2D2D2027
:100B20004C7769702064656D6F202D2D2D2D2D2D36
:100B30002D2D2D2D2D2D0A00F0B589B0324800F055
:100B40003FFA32480024016841F480710160006876
:100B50000125022600F480700790CDE904562C4F41
:100B6000039502A93846029600F044FF00220221B4
:100B7000384601F0DBF8052000F09AF90122022145
:100B8000384601F0D3F8052000F092F921480168B9
:100B900041F0010101608DF800608DF801401A48B4
:100BA0008DF802408DF804408DF803408DF8054023
:100BB0001949C0E9001504826946C0E90515E9052F
:100BC000C0E9074149128160C910C16000F096FA7E
:100BD000040012A014D002F0E5FD14A002F0E2FD22
:100BE0000823194A1949084800F0AEF9184A0823A1
:100BF000A2F50071044800F06DF909B02046F0BD7F
:100C000002F0D0FD13A0E9E788020020303802404E
:100C10000020024000900240008002400D0A5B4428
:100C2000454255475D203E3E200000006574682027
:100C3000686172647761726520696E6974206661AB
:100C4000696C642E2E2E0A0070340020D003002020
:100C5000D0040020657468206861726477617265F1
:100C600020696E6974207375636573732E2E2E0A66
:100C700000000000FEE700000848074901604FF44B
:100C8000E131416000218160C160016181610C211D
:100C9000416101F0D1BD0000001001404802002078
:100CA00070470000064908B509684FF4FA52B1FBD5
:100CB000F2F14143009100BF491E0091FBD208BDF3
:100CC0000000002038B50446006800F580508169B6
:100CD00041F480118161206800F5805080690090A6
:100CE0000120FFF7DFFF2068009900F58050816147
:100CF00038BD000010B55020EFF3118480F3118847
:100D0000BFF34F8FBFF36F8F024800F0BAF984F33F
:100D1000118810BD880200202DE9F041044621B160
:100D20004FF40060E060C000A060E069002500288A
:100D300061D028462368402619683C4A1140D4E90E
:100D400002273A43024342F40070084318602068C7
:100D50000768012000F0ACF8206807602068466052
:100D600020684668012000F0A3F8206846602068EB
:100D700085602068C560216888694FF6417210401F
:100D800040F08000886120688669012000F090F8BA
:100D9000206886612068C5612068C569012000F06F
:100DA00087F82068C561216801F580518869204A6B
:100DB0001040204A02438A61206800F5805085690E
:100DC000012000F075F8206800F5805085612068EA
:100DD000194900F580500160206800F580500568D1
:100DE000012000F065F8206800F580500560A069DA
:100DF000012803D009E04FF480609BE7206800F5EC
:100E00008050C1690D4A1143C16160690C4A8188F3
:100E100011640178C37841EA0361837840781B0448
:100E200043EA002001435164BDE8F0810F8120FFB7
:100E3000233FDEF8040020028020C10240000100B0
:100E400000800240194808B5016841F08001016046
:100E5000016801F080010091016841F00401016026
:100E6000016801F004010091016841F00101016095
:100E7000016801F001010091016841F00201016087
:100E8000016801F002010091016841F04001016038
:100E9000016801F040010091016841F48071016036
:100EA000006800F48070009008BD000030380240F7
:100EB00070B5044600F070FF0546601C02D004487F
:100EC0000078044400F068FF401BA042FAD370BDD4
:100ED000040000202DE9F04390F845400025012C46
:100EE0000DD04FF0010C80F845C0022480F844403A
:100EF00044F2F4574FF000495E1E816217E0022071
:100F0000BDE8F08301EB4514C4F80090C5EBC518AB
:100F100008EB480802EB8808C4E90178B54204D21E
:100F200004F12008C4F80C8000E0E1606D1C9D42D3
:100F3000E8D3026802F58052D16080F844C00021F5
:100F400080F845100846DBE72DE9F043914690F81C
:100F500045200024012A0AD0012680F8456002229B
:100F600080F844204FF4801C5D1EC1621BE002200B
:100F7000BDE8F08301EB4412C2F800C0C4EBC41713
:100F800007EB470809EB88079760C7691FB917681F
:100F900047F440071760AC4203D202F12007D76044
:100FA00000E0D160641C9C42E4D3026802F58052E8
:100FB000116180F84460002180F845100846D7E7A9
:100FC00010B50446022084F84400204600F0DEF903
:100FD000002004F8440F607010BD000010B504A09C
:100FE00002F0E0FBBDE8104004A002F0DBBB000013
:100FF0000D0A5B4552525D203E3E2000657468201C
:101000006572720A0000000010B590F845100129C1
:1010100013D0012280F84520022180F84410816A13
:101020000C680023002C27DB0C68E40518D5846BC2
:10103000641C8463012C02D002E0022010BD016315
:1010400041630C68C4F30D44241FC463046BA4689B
:101050000464C96840F8281F02774377002010BD58
:101060000C68A40503D58263C0E90C1302E0846B0D
:10107000641C8463C968816200F8442F43700120B6
:1010800010BD70B50446006800F5805041694FF00E
:10109000000549064FF0010608D5204600F068FA21
:1010A0002068402100F58050416109E04069C00797
:1010B0000AD0204600F03AFB206800F580504661D7
:1010C00084F8446084F8455020684FF4803100F57E
:1010D00080504161206800F58050406900040CD5C3
:1010E0002046FFF77BFF20684FF4004100F5805059
:1010F000416184F8446084F8455070BD2DE9FC5F7F
:101100004FF000060400B346009624D06068012822
:1011100004D018B1C02184A003F004FCA06928B158
:10112000012803D0C12180A003F0FCFBE06928B1B5
:10113000012803D0C2217CA003F0F4FB206A30B167
:10114000B0F5000F03D0C32177A003F0EBFB94F8B8
:10115000440018B107E00120BDE8FC9F84F8456019
:10116000204600F047F97F48016841F48041016062
:10117000006800F4804001907B48016821F4000180
:1011800001600168226A11430160206800F5805007
:10119000016841F00101016000F0FEFD05464FF4D9
:1011A000FA7708E000F0F8FD401BB84203D90320AD
:1011B00004F8440F6DE0206800F580500068C00717
:1011C000F0D12068006920F01C0501F063F8674940
:1011D000674A0144914202D245F0080516E065498C
:1011E000654A0144914202D245F00C050EE0634984
:1011F000634A0144914209D36249084462498842E2
:1012000002D245F0040501E045F0100520680561B3
:101210004FF400420021204600F08AFA0125002800
:101220006FD10520FFF744FE60684FF400694FF46A
:10123000804A88B300F0B0FD804641F288376A46A4
:101240000121204600F02CF900F0A6FDA0EB0800DB
:10125000B84218D800984007F1D54FF480520021C9
:10126000204600F065FA00284BD100F095FD80463D
:101270006A460121204600F013F900F08DFDA0EB35
:101280000800B84209D901212046FFF745FD04F8BE
:10129000445F032066705FE716E000988006E7D59C
:1012A0006A461F21204600F0FBF850BB0098C1069B
:1012B00002D5C4F80C9000E0E660400701D5A660B6
:1012C00029E0C4F808A026E0A06830B1504504D059
:1012D0004FF4CD7114A003F025FBE068484505D01C
:1012E00020B140F29B1110A003F01CFBE068A16844
:1012F000C00840EA510082B20021204600F018FAEE
:1013000030B101212046FFF707FD84F8445022E761
:101310000520FFF7CDFD59462046FFF7FDFC84F878
:101320004450002018E700002E2E5C4C6962726168
:10133000726965735C53544D3332463478785F4834
:10134000414C5F4472697665725C5372635C73747E
:101350006D3332663478785F68616C5F6574682ECF
:1013600063000000443802400438014000D3CEFE40
:10137000C0E1E40040F1E9FD40787D0100796CFCBA
:10138000005A6202001F0AFA80F0FA0210B50068E3
:101390001249884220D11248016821F08061016021
:1013A000016821F000610160016821F000710160B5
:1013B00032210C4800F020FA86210B4800F01CFA7C
:1013C0004FF40061094800F017FABDE810404FF4EF
:1013D000C041074800F010BA10BD00000080024074
:1013E0003038024000080240000002400004024081
:1013F00000180240F0B50068234987B0884240D108
:1014000032200224002503260B278DE8F1006946CF
:101410001E4800F0EFFA86208DE8F10069461C486E
:1014200000F0E8FAA0028DE8F1006946194800F0E2
:10143000E1FA70038DE8F1006946174800F0DAFA26
:10144000002206213D2000F023FD3D2000F0EEFCAF
:101450001248016841F000710160016801F00071FB
:101460000591016841F080610160016801F08061CF
:101470000591016841F000610160006800F00060C2
:10148000059007B0F0BD0000008002400008024057
:1014900000000240000402400018024030380240C0
:1014A0002DE9F0470446008A91460D46202804D9CC
:1014B0004FF485611FA003F035FA94F844008228A8
:1014C0001DD0822084F84400226810694FF6FF7313
:1014D00000F01C01208A03EAC02008434FF4F861A1
:1014E00001EA8511014321F0020040F00105156178
:1014F00000F052FC064601274FF480380FE002202E
:10150000BDE8F08700F048FC801B404505D304F897
:10151000447F002060700320F2E720680569E80737
:10152000F0D12068406981B2C9F8001084F8447095
:101530000020E5E72E2E5C4C69627261726965736A
:101540005C53544D3332463478785F48414C5F44A5
:1015500072697665725C5372635C73746D33326664
:101560003478785F68616C5F6574682E6300000092
:1015700008B50020009008486946006837F0E0FE92
:101580000098002807D005494FF080500860BFF34D
:101590004F8FBFF36F8F08BD7401002004ED00E092
:1015A000F8B5044690F84500012839D0012584F8A3
:1015B0004550022084F8440020680026016841F06C
:1015C000080101602068006800902846FFF76AFB68
:1015D0002168009808602068016841F004010160FA
:1015E0002068006800900120FFF75CFB21680098EC
:1015F00008602046FFF766FB206800F5805081698F
:1016000041F400518161206800F58050816941F00A
:101610000201816184F8445084F845600020F8BDDF
:101620000220F8BDF0B590F845200023012A11D022
:10163000012780F84570022280F84420002459B127
:10164000C66A3268002A0ADA122100F8441F447080
:101650000120F0BD0220F0BD00F8447FF7E740F222
:10166000F455A9420BD9B1FBF5FCB1FBF5F205FB32
:101670001C1CBCF1000F00D0521C012A43D132685F
:1016800042F040523260C26AC1F30C015160C16A3B
:101690000A6842F000420A60C16AC968C16234E067
:1016A000D6F800C02CF0405CC6F800C033B9C66A5A
:1016B000D6F800C04CF0805CC6F800C0C66A756001
:1016C000561EB34214D1C66AD6F800C04CF0005C76
:1016D000C6F800C0C2F10106C6EBC61606EB460608
:1016E000D0F82CC001EB8606C6F30C06CCF80460DB
:1016F000C66AD6F800C04CF0004CC6F800C0C66AF6
:101700005B1CF668C6629342CAD3016801F580513A
:101710004A69520705D504224A61016801F58051E2
:101720004C6000F8447F44700020F0BD704700001A
:101730002DE9F0410446008A16460D46202804D9BA
:101740004FF48E611DA003F0EDF894F84400422898
:101750001ED0422084F84400226810694FF6FF73BF
:1017600000F01C01208A03EAC02008434FF4F8610E
:1017700001EA85110143B0B241F0030550612068D0
:10178000056100F009FB064601274FF4803810E0A0
:101790000220BDE8F08100BF00F0FEFA801B40454A
:1017A00005D304F8447F002060700320F1E720682F
:1017B0000569E807F0D184F84470EAE72E2E5C4C06
:1017C00069627261726965735C53544D3332463499
:1017D00078785F48414C5F4472697665725C5372F9
:1017E000635C73746D3332663478785F68616C5F04
:1017F0006574682E630000002DE9F05FDFF884A1B6
:101800000D460446504522D05F4884421FD05F48B1
:1018100084421CD05E48844219D05E48844216D06F
:101820005D48844213D05D48844210D05C488442B5
:101830000DD05C4884420AD05B48844207D05B48A4
:10184000844204D04FF4A07159A003F06BF8DFF884
:101850009CE100204FF001094FF00F0B09FA00F155
:1018600005EA01028A427DD1266847000323BB4076
:101870009E432660C60804EB8607D7F820C04607BB
:101880004FEAD6680BFA08F62CEA060CC7F820C017
:10189000A6689E43A66066688E436660E1689943C9
:1018A000E16020F003037344D3F8086881070F0F49
:1018B0000BFA07F10E40544502D14FF0000C40E006
:1018C000DFF8C4C0644502D14FF0010C39E0DFF805
:1018D000BCC0644502D14FF0020C32E0DFF8B0C06A
:1018E000644502D14FF0030C2BE0DFF8A8C064453B
:1018F00002D14FF0040C24E0DFF89CC0644502D113
:101900004FF0050C1DE0DFF894C0644502D14FF0A4
:10191000060C16E0DFF888C0644502D14FF0070CD2
:101920000FE0DFF880C0644502D14FF0080C08E0FA
:10193000DFF874C0644502D14FF0090C01E04FF0AC
:101940000A0C0CFA07FCB44516D1D3F808688E438C
:10195000C3F8086826490B6893430B60091D0B68A0
:10196000934300E008E00B60091D0B6893430B6094
:10197000091D0B6893430B60401C1028FFF46EAFE9
:10198000BDE8F09F00000240000402400008024051
:10199000000C0240001002400014024000180240F7
:1019A000001C0240002002400024024000280240A7
:1019B0002E2E5C4C69627261726965735C53544D82
:1019C0003332463478785F48414C5F4472697665BB
:1019D000725C5372635C73746D3332663478785F13
:1019E00068616C5F6770696F2E63000000300140B2
:1019F000003C01402DE9F84F0446A9480D468442B9
:101A000021D0A84884421ED0A74884421BD0A748B2
:101A1000844218D0A648844215D0A648844212D0E9
:101A2000A54884420FD0A54884420CD0A4488442E3
:101A300009D0A448844206D0A348844203D0C321DD
:101A4000A2A002F06FFF28680104090C01D0000C6D
:101A500003D0C4219DA002F065FF6868F8B1012899
:101A60001DD011281BD0022819D0122817D0A64942
:101A7000884214D0A549884211D0A54988420ED089
:101A8000A44988420BD0A449884208D0A34988427F
:101A900005D0032803D0C5218CA002F043FFA8681D
:101AA00038B1012805D0022803D0C62187A002F052
:101AB00039FF00264FF0010B0BFA06F02F68824623
:101AC000074057457ED16868022801D0122830D1DE
:101AD000286908B309281FD001281DD002281BD06F
:101AE000032819D0042817D0052815D0062813D0AC
:101AF000072811D008280FD00A280DD00B280BD0AA
:101B00000C2809D00D2807D00F2805D00E2803D0A7
:101B1000D7216EA002F006FFF00804EB8002106AE5
:101B20007107CB0E0F2199408843296999400143E1
:101B3000116220687200032101FA02F829799146A6
:101B400001F0030120EA080001FA09F101432160D4
:101B50006868012805D0022803D0112801D0122876
:101B60001CD1E86848B1012807D0022805D0032815
:101B700003D0EA2155A002F0D5FEA168E86821EA69
:101B8000080100FA09F00843A0606068297920EA9A
:101B90000A00C1F30011B14001436160E068A96827
:101BA00020EA080001FA09F10143E1606868C00019
:101BB0006FD55B48016841F480410160006800F422
:101BC000804000E065E00090564826F003010A18C6
:101BD000D2F80808B1070B0F0F219940884330490C
:101BE0008C4201D100212DE02E498C4201D10121EE
:101BF00028E02D498C4201D1022123E02B498C425F
:101C000001D103211EE02A498C4201D1042119E0AF
:101C100028498C4201D1052114E027498C4201D189
:101C200006210FE025498C4201D107210AE0244911
:101C30008C4201D1082105E022498C4201D10921C1
:101C400000E00A2199400143C2F8081836490868A3
:101C50006A68B843D20300D5384308603249091D89
:101C600008686A68B843920300D5384308602E4973
:101C7000083108686A68B843D20200D53843086062
:101C800029490C3108686A68B843920200D5384384
:101C90000860761C102EFFF40FAFBDE8F88F00002F
:101CA000000002400004024000080240000C024014
:101CB000001002400014024000180240001C0240C4
:101CC0000020024000240240002802402E2E5C4CDE
:101CD00069627261726965735C53544D3332463484
:101CE00078785F48414C5F4472697665725C5372E4
:101CF000635C73746D3332663478785F68616C5FEF
:101D00006770696F2E630000000011100000211041
:101D100000003110000012100000221000003210EC
:101D20004438024000300140003C014070B5154687
:101D30000C00064604D140F2AF1108A002F0F2FDFB
:101D400045B1012D04D04FF4D87104A002F0EAFD92
:101D5000B46170BD2004B06170BD00002E2E5C4CDB
:101D600069627261726965735C53544D33324634F3
:101D700078785F48414C5F4472697665725C537253
:101D8000635C73746D3332663478785F68616C5F5E
:101D90006770696F2E63000001488068704700001B
:101DA0000400002002488168027811448160704775
:101DB000040000200B4810B5016841F40071016077
:101DC000016841F480610160016841F48071016043
:101DD000032000F0AFF80F2000F006F800F024F820
:101DE000002010BD003C024070B50D4D04464FF47C
:101DF0007A712878B1FBF0F00A490968B1FBF0F07C
:101E000000F006FD48B9102C07D200222146501ED2
:101E100000F03EF800206C6070BD012070BD000035
:101E200004000020000000207047000010B50400EE
:101E300003D5CE2106A002F075FD04F01F0101209C
:101E400088406109890001F1E021C1F8000110BD5D
:101E50002E2E5C4C69627261726965735C53544DDD
:101E60003332463478785F48414C5F447269766516
:101E7000725C5372635C73746D3332663478785F6E
:101E800068616C5F636F727465782E630000000098
:101E900070B515460C460646102A03D3BA2114A085
:101EA00002F040FD102C03D3BB2111A002F03AFD3B
:101EB0001F480068C0F30223C3F107022046042A2A
:101EC00000D90422191D072901D2002300E0DB1EDE
:101ED000012404FA02F1491E014099409C40641E0D
:101EE0002C4021433046BDE8704001F058B9000055
:101EF0002E2E5C4C69627261726965735C53544D3D
:101F00003332463478785F48414C5F447269766575
:101F1000725C5372635C73746D3332663478785FCD
:101F200068616C5F636F727465782E6300000000F7
:101F30000CED00E010B5044607280BD0062C09D0A4
:101F4000052C07D0042C05D0032C03D0A22108A017
:101F500002F0E8FC164904F0070208684FF6FF0398
:101F6000184040EA0220134A1043086010BD0000E8
:101F70002E2E5C4C69627261726965735C53544DBC
:101F80003332463478785F48414C5F4472697665F5
:101F9000725C5372635C73746D3332663478785F4D
:101FA00068616C5F636F727465782E630000000077
:101FB0000CED00E00000FA052DE9F8431748016830
:101FC00041F0805101600068154F00F080500126FB
:101FD00000903E64FFF7E0FE05464FF47A78114C1E
:101FE00005E000BFFFF7D8FE401B40450DD86068F4
:101FF000C003F7D57E64FFF7CFFE0546464607E0EF
:10200000FFF7CAFE401BB04202D90320BDE8F883A7
:1020100060688003F4D50020F8E7000040380240F3
:1020200000000E42007000402DE9F0470C4605000C
:102030007ED02868401E0E2804D94FF4147182A067
:1020400002F070FC14B3012C20D0022C1ED0032C03
:102050001CD0042C1AD0052C18D0062C16D0072C16
:1020600014D0082C12D0092C10D00A2C0ED00B2C16
:102070000CD00C2C0AD00D2C08D00E2C06D00F2C16
:1020800004D040F2512170A002F04CFCDFF8F48142
:10209000D8F80000E7B200F00F00A04207D288F89D
:1020A0000070D8F8000000F00F00A04240D128686E
:1020B000754E810729D5400703D5306840F4E050BC
:1020C00030602878000703D5306840F46040306005
:1020D000A868A0B1802812D0902810D0A0280ED0D7
:1020E000B0280CD0C0280AD0D02808D0E02806D0CC
:1020F000F02804D04FF41D7153A002F013FC306897
:10210000A96820F0F000084330602878C00743D069
:10211000DFF874916868A9F1080998B1012822D004
:10212000022824D0032822D040F27B2146A000E0E0
:102130003FE002F0F7FB6868012814D0022816D0AF
:10214000032814D0D9F800008007002831DA30685D
:10215000696820F0030008433060FFF71DFE8146E8
:1021600041F2883A11E0D9F800008003EDE7D9F890
:1021700000008001E9E700BFFFF70EFEA0EB0901B8
:10218000514502D90320BDE8F0873068696800F046
:102190000C00B0EB810FEFD1D8F80010404601F0F1
:1021A0000F01A14207D90770006800F00F00A0429C
:1021B00001D00120E7E728784FF4805440074FF41E
:1021C000A0574FF4C0584FF4E05914D5E86860B1F7
:1021D000A0420AD0B84208D0404506D0484504D0B5
:1021E00040F2B92118A002F09DFB3068E96820F4A4
:1021F000E050084330602878000715D5286960B1A1
:10220000A0420AD0B84208D0404506D0484504D084
:102210004FF430710CA002F085FB3068296920F47E
:10222000604040EAC100306000F05AF83168174A57
:10223000C1F30311515CC840154908600F20FFF736
:10224000D3FD00209FE700002E2E5C4C6962726176
:10225000726965735C53544D3332463478785F4805
:10226000414C5F4472697665725C5372635C73744F
:102270006D3332663478785F68616C5F7263632EA9
:1022800063000000003C02400838024066980308E2
:102290000000002001480068704700000000002096
:1022A0000448054900680968044AC1F38221515C69
:1022B000C8407047000000200838024076980308A4
:1022C0000448054900680968044AC1F34231515C79
:1022D000C840704700000020083802407698030884
:1022E000154810B5006810F00C02144813D01449BA
:1022F000042A0FD0082A0ED10F4C241F226823680D
:1023000002F03F025B0207D52068C0F38810A0FBF3
:10231000010106E0084610BD2168C1F38811A1FB48
:1023200000010023FDF7CAFF2168C1F30141491CE8
:102330004900B0FBF1F010BD083802400024F40061
:1023400040787D012DE9F84F04007DD020680F28EA
:1023500003D9F821F1A002F0E5FA2078DFF8F8B30C
:10236000FE4DC00756D060684FF480364FF4A0276A
:1023700038B1B04205D0B84203D0FD21E7A002F049
:10238000D1FADBF800105846C1F38101012909D0C8
:102390000068C0F3810002280BD1EF48001F0068DD
:1023A000400206D52868800334D560680028CCD068
:1023B00030E06068B04203D1286840F480300CE01F
:1023C000B842286803D140F480202860F4E720F464
:1023D00080302860286820F480202860606860B120
:1023E000FFF7DAFC064604E0FFF7D6FC801B642802
:1023F0007ED828688003F7D50CE0FFF7CDFC0646B1
:1024000005E000BFFFF7C8FC801B6428F0D82868EF
:102410008003F7D42078DFF8488380074FF0000965
:1024200056D5E06830B1012804D040F22F11BBA08E
:1024300002F078FA20691F2804D94FF49871B7A0E8
:1024400002F070FA584600E092E0DBF8001011F05C
:102450000C0F09D00068C0F38100022811D1BE48DA
:10246000001F006840020CD42868800702D5E0688D
:1024700001287DD12868216920F0F80040EAC100D8
:1024800016E0E068B0B10120C8F80000FFF784FC56
:10249000064604E0FFF780FC801B0228A8D82868C5
:1024A0008007F7D5286820F0F801206941EAC000CC
:1024B00028600DE0C8F80090FFF76EFC064604E0C7
:1024C000FFF76AFC801B022892D828688007F7D49F
:1024D000207800072ED5A04EA24F60696C36D0B18F
:1024E000012808D04FF4B8718CA002F01BFA00E06C
:1024F0004FE1606978B101203860FFF74DFC074675
:1025000005E000BFFFF748FCC01B0228C6D83068B2
:102510008007F7D50EE0C7F80090FFF73DFC0746AF
:1025200005E000BFFFF738FCC01B0228B6D83068B2
:102530008007F7D42078400776D5A068002740B1FF
:10254000012806D0052804D04FF4CE7173A002F004
:10255000E9F9DFF804A20AF1380ADAF80000C0004D
:102560000DD4DAF8001041F08051CAF8001000E0F4
:10257000D3E0DAF80000012700F0805000907A4E96
:102580003068C00511D4306840F480703060FFF7C7
:1025900003FC009006E000BFFFF7FEFB0099401A25
:1025A000022891D83068C005F6D56B4EA068683611
:1025B00001280FD00528306810D020F001003060CD
:1025C000306820F004003060A068B8B1FFF7E4FB89
:1025D00000900FE0306840F00100F4E740F00400A4
:1025E0003060F7E7FFF7D8FB0099411A41F28830D5
:1025F00081428BD830688007F4D50EE0FFF7CCFB22
:10260000009007E0FFF7C8FB0099411A41F28830BB
:1026100081428BD830688007F4D42FB1DAF80010EB
:1026200021F08051CAF80010A069002874D0012858
:1026300009D0022807D040F2DF1138A002F072F969
:10264000A0690028F2D0DBF80000C0F38100022866
:1026500063D0A069022805D0C8F86090FFF79CFB02
:10266000044699E0E06938B1B0F5800F04D04FF42A
:10267000F4712AA002F056F9206A3F2804D940F2EA
:10268000E91126A002F04EF9606A3238B0F5BF7F3A
:1026900004D94FF4F57121A002F044F9A06A022890
:1026A0000AD0042808D0062806D0082804D040F212
:1026B000EB111AA002F036F9E06A801E0D2804D949
:1026C0004FF4F67115A002F02DF94746C8F8609056
:1026D000FFF762FB064604E0FFF75EFB801B022863
:1026E00057D828688001F7D4D4E907010843A16AC4
:1026F0001E4A490802EB0141626A41EA821108431D
:1027000094F82C1040EA01611348001F0160012079
:102710003866FFF741FB2BE041E042E02E2E5C4C97
:1027200069627261726965735C53544D3332463429
:1027300078785F48414C5F4472697665725C537289
:10274000635C73746D3332663478785F68616C5F94
:102750007263632E630000000838024000380240B4
:1027600000004742800E4742007000400000FFFF1B
:10277000044604E0FFF710FB001B022809D8286874
:102780008001F7D50BE000BFFFF706FB001B022816
:1027900002D90320BDE8F88F28688001F4D4002016
:1027A000F8E70120F6E7000010B54FF0E024042818
:1027B00009D020B140F2D91105A002F0B3F8206988
:1027C00020F0040002E0206940F00400206110BD08
:1027D0002E2E5C4C69627261726965735C53544D54
:1027E0003332463478785F48414C5F44726976658D
:1027F000725C5372635C73746D3332663478785FE5
:1028000068616C5F636F727465782E63000000000E
:1028100010B5401EB0F1807F01D3012010BD4FF0F4
:10282000E02460610F21601700F0B9FC0020A06176
:1028300007202061002010BD70B5040022D0A069DF
:102840003D4E00283D493E4A3E4B20681CD08D1528
:10285000B0420BD0884209D0904207D0984205D0B0
:10286000294639A002F05EF8A06930B3A069A842F9
:1028700023D0B0F5007F20D0B0F5407F1DD040F2CE
:10288000011117E0012070BDB04216D0884214D06B
:10289000904212D03B4988420FD03B4988420CD02D
:1028A00098420AD03949884207D03949884204D031
:1028B00040F2051124A002F035F8A06838B1B0F557
:1028C000805F04D040F207111FA002F02BF8E069EE
:1028D00038B1B0F5004F04D04FF484711AA002F063
:1028E00021F894F83900002520B984F838502046A2
:1028F00000F050F8242084F839002068C16821F4E1
:102900000051C160204600F065FD2068016921F496
:10291000904101612068416921F02A0141612068EC
:10292000C16841F40051C160E563202084F839009A
:1029300084F83A00002070BD0010014000440040BF
:1029400000480040001401402E2E5C4C6962726108
:10295000726965735C53544D3332463478785F48FE
:10296000414C5F4472697665725C5372635C737448
:102970006D3332663478785F68616C5F756172744C
:102980002E630000004C00400050004000780040E2
:10299000007C004030B51E4887B0016841F010014E
:1029A0000160006800F010000590194814380168B3
:1029B00041F001010160016801F001010591016828
:1029C00041F0010101600068072400F0010005905A
:1029D0004FF400700090022001900120029003202B
:1029E000CDE903040B4D69462846FFF703F8281587
:1029F0000090694604942846FEF7FCFF012200215E
:102A00002520FFF745FA2520FFF710FA07B030BD63
:102A100044380240000002402DE9F843044690F893
:102A200039001F4616460D46202850D1A5B19EB14B
:102A300094F8380001284AD0012084F838004FF07B
:102A40000008C4F83C80212084F83900FFF7A4F97D
:102A5000A6848146E68426E00120BDE8F883E08C68
:102A6000401EE084A0684B46B0F5805F4FF0000246
:102A70004FF080012046009703D000F04DFEE8B9EA
:102A80000DE000F049FEC8B928882168C0F30800AD
:102A90004860206908B16D1C05E0AD1C03E02168A9
:102AA00015F8010B4860E08C0028D8D14B46002275
:102AB00040212046009700F02FFE08B10320CCE70C
:102AC000202084F8390084F838800020C5E70220EF
:102AD000C3E70000F0B5264887B0016841F08001E7
:102AE0000160016801F080010591016841F08001F9
:102AF0000160016801F080010591016841F08001E9
:102B00000160016801F080010591016841F0080150
:102B1000016000684FF4806500F008000590012016
:102B2000CDE9005002900320124F039069463846C9
:102B3000FEF760FF6C00694638460094FEF75AFFC6
:102B40006600694638460096FEF754FF0A4F69460C
:102B500038460094FEF74EFF0648183005600460C2
:102B60000660002221463846FFF7E0F807B0F0BDC6
:102B700030380240001C0240000C02402DE9FC41AC
:102B8000074615460E4600246846009326F03EFF91
:102B900060F30704C4F3C00030702009387001A945
:102BA000009800F0EFF80099019A014400910A445E
:102BB000511A022904DB684626F02EFF28800120E6
:102BC000BDE8FC812DE9FC41074600240E46254660
:102BD0006846009226F01AFF0146204661F307007E
:102BE0000009022819D101A9009800F0CBF800993A
:102BF00005460844019900900144081A02280CDB9C
:102C0000684626F003FF60F3070404F00100387003
:102C1000684626F0FBFE307001252846BDE8FC81A1
:102C20002DE9FC5F8046DDE90EA00024CDE900041B
:102C3000994617460E462546DDF834B0684626F01C
:102C4000E5FE60F30704200903282CD1C4F3C0017A
:102C500088F80010C4F34100306004F001003870BF
:102C600001A9009800F08EF80099054608440199E2
:102C700000904418224669460C9826F0D6FE90B182
:102C80000098201A0FD43068002804DD684626F02A
:102C9000C3FEA9F800000098211ACAF80010009994
:102CA0000125CBF800102846BDE8FC9F2DE9FC4724
:102CB00081460A98002400909A4616468846254682
:102CC000684626F0A3FE0146204661F3070000098E
:102CD000092826D101A9009800F054F8009905466A
:102CE0000844019900904718381A022819DB6846F1
:102CF00026F092FEA9F8000034600EE031684145EC
:102D000002DD4FF0FF350CE0684626F07FFE3168AB
:102D10008B00491C31604AF803000098B842EDD39B
:102D200001252846BDE8FC870EB500238DF8043048
:102D30008DF8083000920B46024602A901A8FFF761
:102D40001DFF9DF804100B2900D101200EBDF8B520
:102D5000012500240E4607460C60641C042C0FDC81
:102D600001216846B84701280AD19DF80000316862
:102D700000F07F0202FB0511ED0131600006ECD48A
:102D80002046F8BD024A10600248FFF7E0BF00008D
:102D9000C0010020B14A000810B503460020CA1740
:102DA00001EB526424F07F02891ACAB2E1110029B2
:102DB00002DD00BF42F080021A5400F10100EEDC97
:102DC00010BD70B504680E4624B12046FDF722FB05
:102DD000054601E0D0E901543046FDF71BFB854272
:102DE00005D12A4631462046FDF728FB08B10020D0
:102DF00070BD012070BD0000401C802801DA401C1D
:102E00007047B0F5804F01DA801C70470349884253
:102E100001DAC01C7047001D70470000FFFF1F0053
:102E2000F8B50024069E05460090042901DAA01E8C
:102E3000F8BD62F3071463F3C304062A24F0060006
:102E400000D1801CC1B2684634F090FE0221009887
:102E5000FFF7A2FF0099084400903146684634F01D
:102E60008BFE0098401BF8BD2DE9F8430746009003
:102E7000884614460025104600F082F88146FFF788
:102E8000BBFF404502DDA81EBDE8F8832E46314653
:102E900066F307016846103134F068FE4946009831
:102EA000FFF77AFF009908440090207A04281DD08B
:102EB0002FA1684634F046FE0321684634F056FEE2
:102EC000A07E66F3070560F34105E07E08B145F09A
:102ED0000405680707D594F83D0060F3C40594F82D
:102EE0003C0060F34515206C40B905E022A168461E
:102EF00034F028FE0421E0E7A06C08B145F080051D
:102F0000E06C08B9606D08B145F040052946684697
:102F100034F02CFE218B684634F02EFE04F10C01B7
:102F200068460EC934F037FEE07E68B12434684646
:102F300094E80E00243C34F02EFE3034684694E8C9
:102F40000E00303C34F027FE280605D504F1400180
:102F500068460EC934F01FFE680605D54C34684635
:102F600094E80E0034F017FE0098C01B8CE70000B8
:102F70004D514973647000004D51545400000000DD
:102F800070B50446007A0025032802D0042802D038
:102F900002E00C2500E00A2504F10C0007C800F04F
:102FA000F5F80544E07EAD1C78B1243494E80700C0
:102FB000243C00F0EBF83034064694E80700303C3F
:102FC00000F0E4F8304405442D1D206C08B9A16CD4
:102FD00029B1D4E9111200F0D9F80544AD1CE06C18
:102FE00008B9616D29B1D4E9141200F0CFF8054495
:102FF000AD1C284670BD0C2200F0AFB82DE9FC5F77
:103000001C46129ECDE90060DDF838B09046DDF830
:1030100030A0DDE90F23894607465946204600F0D7
:1030200030F80546FFF7E8FE484503DD6FF0010084
:10303000BDE8FC9F302168F3C30164F342016AF3E9
:10304000000101A834F092FD29460198FFF7A4FE83
:10305000019908440190DDE90F23594601A834F095
:103060009AFD002C03DD01A80D9934F085FD324650
:1030700011990198FDF77EF9019830440190C01B29
:10308000D6E770B50E46114604461A463046049DF2
:1030900000F07CF82844801C002C00DD801C70BDF2
:1030A0002DE9FF4F83B0064610A8894690E88009B5
:1030B00000249246254641463846009600F036F8F0
:1030C0000190FFF799FE484503DDA01E07B0BDE85B
:1030D000F08F64F3070480346AF3C30424F006001D
:1030E000801CC1B2684634F041FDDDE90001FFF704
:1030F00053FE0099084400906846069934F03CFD60
:103100000FE000BF05EB450108EB810090E80E00E1
:10311000684634F040FD1BF82510684634F026FD63
:103120006D1CBD42EEDB0098801BCFE72DE9F0411E
:1031300002250F46064600240AE000BF04EB4400C7
:1031400007EB800007C800F021F80544641CED1C63
:10315000B442F3DB2846BDE8F08138B500230446CD
:103160000090022901DA981E38BD194663F3070161
:1031700062F30711684634F0F9FC00210098FFF76C
:103180000BFE009908440090001B38BD10B510B12B
:10319000FDF740F90146084610BDFEE770470907F4
:1031A000090E002806DA00F00F0000F1E02080F898
:1031B000141D704700F1E02080F80014704710B52E
:1031C0005020EFF3118480F31188BFF34F8FBFF3CA
:1031D0006F8FFEF7E7FD36F081F9012801D035F059
:1031E00043FE84F3118810BD30B5264893B0002506
:1031F000016841F080510160006800F0805011903A
:103200002148016841F4404101600068022400F453
:103210004040119001200090000401908001CDE910
:103220000640192008904FF4B470CDE90904072036
:103230000B906846FFF786F800B1FEE7FEF7BCFE8C
:103240000CA90F2081E831004FF4A0500F904FF4EB
:103250008050109005210CA8FEF7E6FE00B1FEE7B5
:10326000FFF718F84FF47A71B0FBF1F0FFF7D0FADE
:103270000420FFF799FA00221146501EFEF708FEBF
:1032800013B030BD40380240007000401048016863
:1032900041F4700101600F48016841F001010160D3
:1032A0000C4A00210832116002680B4B1A40026080
:1032B000031D0A4A1A60026822F48022026005484F
:1032C0000C300160024958068039086070470000E0
:1032D00088ED00E000380240FFFFF6FE10300024C9
:1032E0003EB50021084633F0C9F8204D0020291DC5
:1032F00028600860091D1F4A0860CDE900021C49CA
:1033000005F1080302911A1F111F1B4823F052FDFB
:10331000194823F0F1FE184C94F83100400720467C
:1033200002D523F011FF01E023F0ECFE134800F07A
:1033300039FA114803F00CFC18B111A000F032FA70
:1033400004E016A0FAE7012034F076F960682968F5
:103350008842F8D0010E0091C0F30743C0F3072262
:10336000C1B215A000F01EFA3EBD00008C01002085
:103370007965030845B1000838810220ECE80308AC
:103380006C776970206468637020696E6974206668
:1033900061696C2E2E2E0A0A000000006C7769709D
:1033A000206468637020696E697420737563636557
:1033B00073732E2E2E0A0A00B1BEB5D84950B5D867
:1033C000D6B7CAC73A25642E25642E25642E2564F7
:1033D0000A0A00002DE9F04104464068BC498842D1
:1033E00004D340F68511BBA001F09CFAE06838B127
:1033F000B0F5005F04D040F68611B6A001F092FA55
:10340000206950B1B0F5806F07D0B0F5C06F04D01F
:1034100040F68711AFA001F085FA60694FF6F371AD
:10342000084200D120B940F68811AAA001F07AFA2A
:103430002268106920F44051E06808431061226856
:10344000D06849F20C6188432369A168E569194392
:1034500063692B4319430143D1602268506920F40A
:103460004071A06908435061E2696425B2F5004FDC
:10347000A748A84922684FF032083FD08A4201D0BD
:1034800082427CD1FEF71CFF00EBC00101EB001073
:1034900061688900B0FBF1F6FEF712FF00EBC00196
:1034A00001EB001061688900B0FBF1F0B0FBF5F0B2
:1034B0006FF01801484306EB800108EB0110B0FBE8
:1034C000F5F000F0F006FEF7FBFE00EBC00101EBAB
:1034D000001061688900B0FBF1F0B0FBF5F006EB7D
:1034E0000016FEF7EDFE00EBC00101EB0010616875
:1034F0008900B0FBF1F7FEF7E3FED2E08A4201D08B
:1035000082423DD1FEF7DCFE00EBC00101EB001072
:1035100061684900B0FBF1F0B0FBF5F00601FEF781
:10352000CFFE00EBC00101EB001061684900B0FB69
:10353000F1F7FEF7C5FE00EBC00101EB001061687A
:103540004900B0FBF1F0B0FBF5F06FF01801484313
:1035500007EB800108EBC100B0FBF5F000F0F800CC
:1035600006EB4006FEF7ACFE00EBC00101EB0010DD
:1035700061684900B0FBF1F7FEF7A2FE3CE055E0C0
:10358000FEF78EFE00EBC00101EB00106168490000
:10359000B0FBF1F0B0FBF5F00601FEF781FE00EBA9
:1035A000C00101EB001061684900B0FBF1F7FEF7C4
:1035B00077FE00EBC00101EB001061684900B0FB31
:1035C000F1F0B0FBF5F06FF01801484307EB800114
:1035D00008EBC100B0FBF5F000F0F80006EB400688
:1035E000FEF75EFE00EBC00101EB001061684900D0
:1035F000B0FBF1F7FEF754FE00EBC00101EB001049
:1036000061684900B0FBF1F0B0FBF5F06FF0180114
:10361000484307EB800108EBC100B0FBF5F000F078
:103620000700216830448860BDE8F081FEF738FE6D
:1036300000EBC00101EB001061688900B0FBF1F6FE
:10364000FEF72EFE00EBC00101EB0010616889005F
:10365000B0FBF1F0B0FBF5F06FF01801484306EB5A
:10366000800108EB0110B0FBF5F000F0F006FEF76A
:1036700017FE00EBC00101EB001061688900B0FB90
:10368000F1F0B0FBF5F006EB0016FEF709FE00EBDB
:10369000C00101EB001061688900B0FBF1F7FEF793
:1036A000FFFD00EBC00101EB001061688900B0FB79
:1036B000F1F0B0FBF5F06FF01801484307EB800123
:1036C00008EB0110B0FBF5F000F00F00A9E70000D7
:1036D000A137A0002E2E5C4C69627261726965731D
:1036E0005C53544D3332463478785F48414C5F44E4
:1036F00072697665725C5372635C73746D333266A3
:103700003478785F68616C5F756172742E63000055
:1037100000140140001001402DE9F0419846174681
:103720000E460446069D1DE0681C1BD02DB1FEF719
:1037300033FBA0EB0800A84214D92068C16821F42B
:10374000D071C1602068416921F0010141612020F0
:1037500084F8390084F83A00002084F83800032007
:10376000BDE8F0812068006836EA000004D000203F
:10377000B842D9D00020F3E70120F9E7FEE70000C6
:1037800070B5054600244FF47A7629193346012294
:103790000348FFF741F9641C285D0028F5D170BD8E
:1037A000480200200FB4054B10B503A9044A029843
:1037B00000F058FA10BC5DF814FB0000B5B9000821
:1037C000380200200FB47CB50C0009AD01D0611E99
:1037D00000E00021CDE90001064B6A462946089821
:1037E00000F040FA002C02D0009A002111707CBC3D
:1037F0005DF814FB6B4300080FB4084B10B504A927
:1038000002AA039800F02EFA044602A9002000F054
:10381000B7FD204610BC5DF814FB00008143000892
:103820007CB50C001D461646014601D0601E00E026
:103830000020CDE90010064B6A462946304600F0CC
:1038400011FA002C02D0009A002111707CBD0000FA
:103850006B430008004870474402002002E008C89B
:10386000121F08C1002AFAD170477047002001E0FA
:1038700001C1121F002AFBD1704710B50C68944299
:1038800000D203550868401C086010BD2DE9FF4FA9
:1038900097B00022DDE92617DDE92406A1F1020C2C
:1038A000289C4FF0200B56A35AA5BCF10F0F6FD2E6
:1038B0005FEA446C00D52B46650701D524F002046D
:1038C000A50607D5051E76F1000503DA40424FF044
:1038D0002D0206E0E50601D52B2202E0250700D5E2
:1038E000202200250DF1100690FBF1FC01FB1C0CC1
:1038F00090FBF1F013F80CC006F805C06D1CB04643
:103900000028F1DC002002AB12B18DF80820012064
:10391000E2070FD0082901D010290BD130221A5408
:10392000401C102906D1610601D5782100E05821FC
:103930001954401C4FF0000A2918994603F800A0BA
:10394000B94204DAA7EB0501A1EB000601E04FF054
:10395000000603DAA7EB0501A1EB0006002E22DD2D
:10396000600720D4A0071AD5002706E00DF15C0CF3
:103970009CE80700FFF781FF7F1C19F80730002B38
:10398000F4D18DF808A00AE0A00702D5302301E0A9
:1039900028E0202317AF97E80700FFF76EFF301EDF
:1039A000A6F10106F0DC002707E000BF0DF15C0A7C
:1039B0009AE80700FFF761FF7F1C19F80730002B1A
:1039C000F4D14746281EA5F1010507DD0DF15C087D
:1039D0007B5D98E80700FFF750FFF3E7002E01DD5D
:1039E000600708D41BB0BDE8F08F17AC5B4694E8C5
:1039F0000700FFF742FF301EA6F10106F5DCF1E7F4
:103A00003031323334353637383941424344454614
:103A100000000000303132333435363738396162D6
:103A200063646566000000002DE9F0471746DDE994
:103A3000082600241D4688468146002A21DD1846B6
:103A4000002101E0401C491C0378002BFAD1541AD4
:103A5000002C01DA1C4614E013D0700706D510E0E4
:103A600020233A4641464846FFF707FF201EA4F1AF
:103A70000104F5DC05E03A46414648466D1CFFF777
:103A8000FCFE2B78002BF6D1002C01D0700707D458
:103A9000BDE8F08720233A4641464846FFF7EDFE51
:103AA000201EA4F10104F5DCF2E700002DE9FF5F20
:103AB00082B00021DDE90430020DDDF840B003439F
:103AC00018D044F61050A2F2FF3242431514119858
:103AD00001281FD0A5EB0B00401C5FEA000A4FF045
:103AE00000064E4FDFF83891B046504615D5CAF162
:103AF000000413E0119801244AA3012801D16FEAC0
:103B00000B010298119AC0E90031C0E9024206B0E7
:103B1000BDE8F09FCBF10000DFE704460021404AFA
:103B2000491842EB0450CDE9001012E0E00707D03D
:103B300032463B4640464946FCF7AFFD8046894643
:103B400032463B4610461946FCF7A7FD06460F468F
:103B50006410002CEAD1DDE90401DDE90023BAF1AB
:103B6000000F06DAFCF799FD42464B46FCF795FD3F
:103B700005E0FCF704FE42464B46FCF700FE044617
:103B80000E460022284BFCF781FE03D84FF0FF3091
:103B9000014607E00022254B20463146FCF7D6FCC3
:103BA000FCF75CFE102409E0002C0ADB0A2200234B
:103BB000FCF784FB039B30321A55641E50EA010265
:103BC000F2D1641C039AC4F111031444119A012A1E
:103BD00003D0012208430DD10AE0084304D000209D
:103BE0004FF0110B119072E7A3EB0B056D1E0DE06A
:103BF0005B4504DD4FF0000205F1010504E003DA46
:103C00004FF00002A5F10105002AECD002981199AD
:103C1000C0E90231C0E9004579E700000000144026
:103C20000000F03F300000000000F0430000E03FE3
:103C300030B5024600206FF02F04116807E000BF86
:103C400000EB800004EB4000491C184411600B7825
:103C5000A3F13005092DF3D930BD5060C0E9002132
:103C6000086070472DE9FF4F95B09A468846064692
:103C70000025EEE1252877D100242746F94A0121C5
:103C8000039400E0044316F8013F203B01FA03F0DF
:103C90001042F7D130782A2811D06FF02F033078F6
:103CA000A0F13002092A16D8039A44F0020402EB6C
:103CB000820203EB42021044761C0390EFE758F8AF
:103CC000042B0392002A03DA504244F40054039078
:103CD00044F00204761C30782E2816D116F8010F15
:103CE00044F004042A280DD06FF02F023078A0F1A0
:103CF0003003092B09D807EB870302EB4303C718EE
:103D0000761CF3E758F8047B761C30786C280FD0CB
:103D100006DC4C2817D068280DD06A2814D104E09E
:103D2000742810D07A280FD10DE044F400140AE072
:103D300044F4801401E044F440147278824202D1C9
:103D400004F58014761C761C307866280BD013DCC2
:103D5000582877D009DC002875D04528F6D04628A9
:103D6000F4D047281AD193E118E0632835D06428AD
:103D700079D0652812D18BE1702873D008DC6728D0
:103D8000F1D069286FD06E280DD06F2806D1ACE035
:103D900073282CD0752874D0782853D052461799A0
:103DA00090476D1C54E1C4F30250022809D0032847
:103DB0000DD0D8F8001004280DD00D6008F10408CB
:103DC00046E1D8F80010EA17C1E90052F6E7D8F842
:103DD00000100D80F2E70D70F0E718F8041B8DF865
:103DE000001000208DF80100EB46012003E058F898
:103DF00004BB4FF0FF3061074FF0000102D40DE02B
:103E000009F101018946B9420FDA8145F8DB1BF857
:103E100009100029F4D108E009F101018946814225
:103E2000FADB1BF809100029F6D103985346A0EBE2
:103E3000090721463846179A00F080FA284400EB1B
:103E4000090507E044E008E10DE01BF8010B5246CC
:103E500017999047B9F10109F7D2534621463846E0
:103E6000179AF2E039E00A21C4F302524FF0000B36
:103E70000091022A06D058F8040BC117032A09D072
:103E80000AE023E008F1070020F00702F2E802014F
:103E9000904605E000B2C117042A01D140B2C11713
:103EA000002906DA0A460021404261EB02012D2278
:103EB00002E0220504D52B228DF80420012203E024
:103EC000E20701D02022F7E7914657E00A2100E0FF
:103ED00010214FF0000B00910BE010214FF0000B70
:103EE00044F004040827009103E008204FF0000B81
:103EF0000090C4F30252022A05D058F8040B0021A6
:103F0000032A08D008E008F1070020F00702F2E8D1
:103F10000201904603E080B2042A00D1C0B24FF003
:103F2000000922072AD53278702A07D0DDF800C0B0
:103F30008CF0100C5CEA0B0C05D00EE040228DF8E2
:103F40000420012208E050EA010306D030238DF856
:103F500004308DF8052002229146009B83F008036F
:103F600053EA0B030AD150EA010201D1620705D5D9
:103F700030228DF804204FF001097F1E3278582A34
:103F800004D039A20C920CAA02920BE03BA2F9E7F2
:103F90005B46009AFCF792F90C9B9B5C029A521EBE
:103FA0000292137050EA0102F2D1029804A9081A91
:103FB00000F1200B600702D524F4803400E00127D3
:103FC0005F4502DDA7EB0B0000E0002000EB0B01DA
:103FD000009003984944401A0390E00306D45346E6
:103FE0002146179A039800F0A9F90544002706E036
:103FF00001A85246C05D179990476D1C7F1C4F4524
:10400000F6DBE0030CD553462146179A039800F0DF
:1040100095F9054404E030205246179990476D1CED
:104020000099481E00900029F5DC08E002980299EA
:1040300052460078491C0291179990476D1CBBF1BC
:104040000001ABF1010BF1DC5BE100F065F9054427
:10405000761C307800287FF40DAE19B02846BDE8F4
:10406000F08F000009280100303132333435363703
:1040700038396162636465660000000030313233B4
:104080003435363738394142434445460000000054
:10409000600700D4062708F1070020F00700F0E8C9
:1040A0000223804603F0004C5FEA0C0001D097A089
:1040B00009E0200501D596A005E0E00701D095A014
:1040C00001E0AFF24C001390307823F000436528F4
:1040D0000CD006DC452809D046281DD047287FD1C2
:1040E0003BE0662818D067287AD136E00021112FEE
:1040F00001DB112000E0781CCDE9000104A90CA827
:10410000FFF7D4FCDDE90D010C9A4FF0000B07F12D
:104110000109109200914EE04FF000400097CDE968
:10412000011004A90CA8FFF7C1FCDDE90D020C9BEE
:104130000F994FF0000B91461093009211B9791C22
:1041400000EB0109B7EB090003D4C0F1FF3B07F115
:104150000109A9EB0700019042E0012F00DA0127D5
:104160000021112F01DD112000E03846CDE90001CA
:1041700004A90CA8FFF79AFCDDE90D010C9A009147
:104180004FF0000BB946109221070FD4009A4A4510
:1041900003DA914601E0A9F10109B9F1010F05DD4A
:1041A000109AA9F10101515C3029F4D0B84202DA29
:1041B00010F1040F03DA0121CDE9011010E000280D
:1041C00003DC8344A9EB000102E0411C494500DD0A
:1041D0008946A0EB0B00401C01904FF0004002907C
:1041E000200705D40198484502DB4FF0FF300190CD
:1041F00000208DF84B0002980DF14B07B0F1004FF5
:1042000025D002200C902B200D90029800280CDA6B
:10421000404202902D200D9007E00A210298FCF701
:1042200037F93031029007F8011D0C99481E0C90A7
:104230000029F2DC02980028EFD1791E0D98087051
:10424000307800F0200040F0450007F8020D11A87A
:10425000C01BC01D02901398007800B1012000EB34
:104260000901019801EBE071029801440398401A9A
:10427000401E0390E00306D453462146179A039844
:1042800000F05CF805441398007818B1524617996D
:1042900090476D1CE00323D553462146179A039897
:1042A00000F04CF805441BE0BBF1000F07DB009861
:1042B000584504DD1098179910F80B0001E0179984
:1042C00030205246904701980BF1010B401E05F13A
:1042D0000105019004D12E205246179990476D1C7C
:1042E000B9F10001A9F10109DEDC05E017F8010BC5
:1042F0005246179990476D1C0299481E029000295A
:10430000F4DC53462146179A03989EE62D000000E0
:104310002B000000200000002DE9F041044600259C
:104320001E461746880404D405E039462020B047CD
:104330006D1C641EF9D52846BDE8F0812DE9F041D9
:10434000044600251E469046C80301D5302700E0EC
:104350002027880404D505E041463846B0476D1C47
:10436000641EF9D52846BDE8F0814A68002A06D0C7
:104370000A68531C0B6010704868401E4860704704
:104380000A68531C0B601070704703680B4403608D
:1043900092F900008B4201D2012100E00021084483
:1043A0001070704770B500231C4605681D440560F9
:1043B0009D4201D2012300E000230E6835440560D0
:1043C0000E68B54201D2012500E00025641CE4B26C
:1043D000001D091D2B44022CE7D3106818441060FF
:1043E00070BD30B58B1A802181540121002403E077
:1043F0005518491C4455C9B29942F9D330BD30B55E
:104400008B1A0021DCB203E05518491C4455C9B28F
:104410009942F9D330BD70B58C1A0123002505E00F
:10442000D61806445B1C06F8015CDBB2A342F7D346
:10443000084400F8014C70BD002301E08354521C75
:104440008A42FBD370477CB5DDE90645CDE90045DE
:104450000AF098FF7CBDFEB508AF97E870008DE8C4
:1044600070000AF0DAFFFEBDFEB508AF97E87000F5
:104470008DE870000BF012F8FEBD0BF045B87CB56E
:10448000DDE90645CDE900450BF04AF87CBD0000AA
:104490007CB5DDE9065419B1012901D003487CBD82
:1044A000CDE900540BF064F87CBD0000009FFFFFD5
:1044B00010B54FF48C7101200BF0C2FD040003D045
:1044C0000BF0E4F8204610BD002010BD10B50446E6
:1044D0000BF0D5F82046BDE810400FF0F7B900000A
:1044E0002DE9F04FADF5006D002301210DF5806041
:1044F0004FEA0D0240F8231042F821300C0601D596
:104500001B2400E0002484EA41044C405B1CE1B21F
:10451000FF2BEFDD0021594C012300BF44F821306F
:104520001D0601D51B2500E0002585EA4303491C33
:10453000DBB20A29F2DB524C63210025217004F51D
:104540008853012183F8635052F82160C6F1FF06B9
:1045500050F82660770047EAE617FFB27E404FEA40
:10456000470C4CEAE717FFB27E404FEA470C4CEA93
:10457000E717FFB27E404FEA470C4CEAE717FFB25D
:104580007E4086F0630666549955491CFF29DBDDA1
:10459000DFF8F0900021A34609F5806A09F5006E66
:1045A0005FF0FF041BF801703E0601D51B2600E0FA
:1045B000002686EA470606F0FF0C8CEA07068CEA1E
:1045C000072C8CEA074787EA066649F821604FEA1C
:1045D00036664AF821604FEA36664EF821604FEAA7
:1045E0003667294E46F821705E5C46B352F8266065
:1045F0000E9F374497FBF4FC04FB1C77DDF824C0C6
:1046000050F82770B4449CFBF4F804FB18CC50F825
:104610002CC087EA0C2C0D9F374497FBF4F804FB61
:10462000187750F827708CEA0747DDF82CC06644ED
:1046300096FBF4FC04FB1C6650F8266001E02F4654
:10464000002687EA0666114F47F8216007F5806764
:104650004FEA366647F8216007F580674FEA36660D
:1046600047F821604FEA3667094E46F82170491C29
:10467000FF2997DD0DF5006DBDE8F08FA8A8022099
:10468000A8860220A8870220A8930220A8980220CA
:10469000A8A402200AF0FEBF0BF062B82DE9F04199
:1046A000884607460024154D2DF02FFE05EB04111A
:1046B000096841B12DF04BFE641C042CF4DB4FF073
:1046C000FF30BDE8F08105EB04152F602DF03FFEB3
:1046D00000266E60A87B10B109A0FFF763F82E8159
:1046E00038780121B1EB101F02D15FEA080000D039
:1046F00001206881AE812046E3E70000749F01201D
:10470000736F636B6574735B695D2E73656C656352
:10471000745F77616974696E67203D3D20300000E9
:104720007CB5FEF7DDFD37A0FFF73CF825F0F0FC87
:1047300020F0DCFB04463BA121F03CF93BA12046E4
:1047400021F094F80A2025F005F90146204621F0D1
:104750002DF80A2025F0FEF80146204621F07CF9CC
:104760000A2025F0F7F80146204621F0D1F8012172
:10477000204620F0C3FF204620F095F8054630A0E3
:1047800025F088FC25F0A6FC014631A025F082FC2E
:10479000294632A025F07EFC36A025F07BFC0023C4
:1047A0001A4636A1204621F021FA054624A025F01C
:1047B00071FC25F08FFC014625A025F06BFC2946F5
:1047C00032A025F067FC2BA025F064FC32F0F0FD50
:1047D00034490A20CDE9000123464FF4006232A19A
:1047E000344834F04FFE012802D133A0FEF7DAFF3F
:1047F0002C48001F006832F057FFBDE87C4032F0C3
:1048000011BE00000A77656C636F6D6520746F20C0
:104810006D717474636C69656E7420746573742E45
:104820002E2E0A0031383833000000007777772EBB
:104830006A69656A696530312E746F700000000026
:104840001B0A5B33326D5B495D203E3E2000000059
:104850005B54533A2025645D200000006D71747430
:104860005F636F6E6E65637420657272203D2025F4
:10487000640000001B5B306D00000000667265651F
:1048800072746F732D746F70696300006D7174744E
:104890005F73756273637269626520657272203D31
:1048A00020256400140000206D7174745F746173BE
:1048B0006B000000855C0208437265617465206DC1
:1048C0007174745F7461736B207375636573732E99
:1048D0002E2E0D0A000000000BF08FB810B54FF41B
:1048E000847101200BF0ACFB040003D00BF0B1F895
:1048F000204610BD002010BD10B504460BF0A2F8F4
:104900002046BDE810400EF0E1BF000010B553078F
:1049100001D0034810BDD2080BF09FF8002010BD55
:10492000009FFFFF0C460546FBF752FC00F064FCBD
:104930002246294601A0FEF735FFFEE76173736545
:104940007274206661696C65642061742025733A15
:104950002564200A000000002DE9F04FADF5477DE9
:1049600015460E468346B2F5C07F05D96FF0370075
:104970000DF5477DBDE8F08F4FF4D0716846FBF729
:1049800020FD68A80AF082FE280E8DF81000280C81
:104990008DF81100280A8DF8120030208DF81700CC
:1049A00006AC8DF813502A4631462046FBF7E2FC50
:1049B0008020605505F119080020BEA90854401C4C
:1049C0002028FBDB4FF4807268A80AF0C9FE0700BC
:1049D00052D10025AA466E46CDF8B8A2CDF8BCA2A9
:1049E000CDF8C0A244460DF52E79CDF8C4A217E04B
:1049F00000204946335C0A5C5A400A54401C102887
:104A0000F8DB1036102C01D3102000E02046241AC9
:104A1000AEAB1A46012168A80AF076FD07002BD13B
:104A2000002CE5D1B2A828441022AEA9FBF7A2FCC5
:104A30009DF803001035401C8DF80300302DCADBB3
:104A40004FF48072B2A968A80AF08AFE070013D159
:104A5000BAAD5C4600262B461A46012168A80AF02A
:104A600053FD070008D1102229462046FBF782FC9F
:104A700010341036302EEEDB68A80AF000FE4FF43A
:104A8000D071684617F08EF83021B2A817F08AF876
:104A90002021BEA817F086F81021AEA817F082F8E2
:104AA0001FB13021584617F07DF8384660E7000006
:104AB00030B5044606480023026803E012F8015BA3
:104AC00025705B1C8B42F9DB0260084630BD00009C
:104AD000C00100207CB5DDE90645CDE900450BF0BD
:104AE000B5FA7CBDFEB508AF97E870008DE87000A0
:104AF0000BF0F7FAFEBDFEB508AF97E870008DE841
:104B000070000BF02FFBFEBD0BF062BB10B54FF435
:104B10008A7101200BF094FA040003D00BF01DFC05
:104B2000204610BD002010BD10B504460BF00EFC51
:104B30002046BDE810400EF0C9BE0000F0B5036885
:104B40000C684068496863401D4D484055FA83F140
:104B50000C78A5F5407101EB136601F58077367886
:104B600044EA0664C3F30746C3F30723BE5D4FEA76
:104B7000064C01F50076F35C4CEA03231C4351FA22
:104B800080F107EB106309781B7841EA0361C0F3F9
:104B90000743C0F30720F35C285C1B0443EA0020B2
:104BA000014384EA316081EA304180EA31201368B0
:104BB00081EA30214B401360516841405160F0BDA3
:104BC000E8A403080BF0CDBB0BF00ABC10B5002223
:104BD00003680C68234403600C68A34201D20123DC
:104BE00000E00023521CD2B2001D0B60022AEFD35A
:104BF00010BD13460A4602210BF05DBE2DE9FF4FA2
:104C000095B06FF00C07289EDDF888A0249C022E3A
:104C100035D0102E33D8F00731D1AAF1070007287C
:104C20002DD2B4F57F4F2AD8CAF10F00C5B20020AB
:104C30008DF81C000CB1012100E0002140EA811038
:104C4000B11E490840EAC100691E084303918DF86E
:104C50001C0052460DF11C090DF11D001899FBF7BF
:104C600089FB00214A46179806E000BFC1F10F03F7
:104C7000491CD054C9B2000AA942F7D318B138462A
:104C800019B0BDE8F08F00200B900C900D900BA98F
:104C90000E900B5C19F80020884653400B54401CC2
:104CA000C0B21028F5D30DF14C0B0B461022CDF8F5
:104CB00000B015980CF018FB0028E1D1002C5CD056
:104CC0002398019000200790089009900A90200AEC
:104CD0008DF81C008DF81D400E2C01D2274600E0F7
:104CE0000E273A460DF11E000199FBF743FB019890
:104CF000E41B38440190002007AF41463B5C0A5C4E
:104D00005A400A54401CC0B21028F7D30BAB1022F3
:104D10001946CDF800B015980CF0E6FA0028AFD18E
:104D200029E0102C01D9102000E020460590002039
:104D30000A9007900890099007A8059A0199FBF737
:104D400019FB002041463B5C0A5C5A400A54401C57
:104D5000C0B21028F7D30BAB10221946CDF800B023
:104D600015980CF0C1FA00288AD105980599241AE3
:104D7000019808440190002CD3D103988DF83C0091
:104D80000FAC5246601C1899FBF7F4FA04EB0A00CA
:104D90002946401CFBF715FB01208DF84B00259898
:104DA000179C0190DDF898A076E0102C01D910270F
:104DB00000E02746169800BB002007900890099055
:104DC0000A903A4607A80199FBF7D4FA00204A4610
:104DD000414612F800C00B5C83EA0C030B54401CE4
:104DE000C0B21028F5D30BAB10221946CDF800B095
:104DF00015980CF079FA002891D107AB10220FA971
:104E0000CDF800B015980CF06FFA002887D108E0B3
:104E100001990A5C19F800104A400AF80020401C69
:104E2000C0B2B842F4D31698012820D100200790D0
:104E3000089009900A903A46514607A8FBF79AFA5B
:104E400000204B46414613F800C00A5C82EA0C027F
:104E50000A54401CC0B21028F5D30BAB10221946DF
:104E6000CDF800B015980CF03FFA0028C4D1019895
:104E7000E41B38440190BA4400200FA90AE000BFA7
:104E8000C0F10F028B5C5B1C13F0FF038B5403D14A
:104E9000401CC0B2A842F3D3002C86D100200246A9
:104EA0000FA904E0C0F10F03401CCA54C0B2A842CD
:104EB000F8D307AB1022CDF800B015980CF014FA17
:104EC000002899D14A464146145C0B5C63400B5460
:104ED000401CC0B21028F7D332460BA92798FBF725
:104EE00049FA0020CCE613460A4605210BF0E3BC44
:104EF00010B5402101200BF0A3F8040001D00BF005
:104F0000D7FC204610BD10B504460BF0C5FC20466A
:104F1000BDE810400EF0DABC70B50D4690B0044606
:104F2000014640226846FBF725FA0026684600F055
:104F300075F8761C0A2EF9D3009821680844009071
:104F400001986168084401900298A16808440290A1
:104F50000398E16808440390049821690844049088
:104F600005986169084405900698A169084406906F
:104F70000798E169084407900898216A0844089056
:104F80000998616A084409900A98A16A08440A903D
:104F90000B98E16A08440B900C98216B08440C9024
:104FA0000D98616B08440D900E98A16B08440E900B
:104FB0000F98E16B08440F9000206946820011F8B9
:104FC0002030AB5431F820302A441B0A537051F87A
:104FD00020301B0C937051F82030401C1B0ED370F6
:104FE0001028EBD34021684616F0DCFD10B070BDF0
:104FF00010B5842101200BF023F8040003D00BF03E
:10500000C9FC204610BD002010BD10B504460BF0B1
:10501000BBFC2046BDE810400EF058BC2DE9F8431B
:105020000C248046082304220021009400F036F866
:105030000D250923052201214046009500F02EF898
:105040000E260A23062202214046009600F026F88A
:105050000F270B23072203214046009700F01EF87C
:105060000A23052200214046009700F017F80B2381
:10507000062201214046009400F010F80823072280
:1050800002214046009500F009F80923042203217B
:105090004046009600F002F8BDE8F88370B550F87D
:1050A000215050F82260049C2E4440F8216050F8B2
:1050B000245075404FEA354540F8245050F823609D
:1050C0002E4440F8236050F8225075404FEA355581
:1050D00040F8225050F82160354440F8215050F8F3
:1050E000241069404FEA316140F8241050F8234001
:1050F0000C4440F8234050F8221061404FEA71619F
:1051000040F8221070BD000010B5054CB2F5807F4C
:1051100003D10BF04DFC002800D0204610BD00004C
:10512000009FFFFF10B50BF0BAFC10F1510F00D13A
:10513000004810BD009FFFFF2DE9F0471446DDE950
:105140000B65DDE908790A4682461946DDF82880B4
:105150000BF00EFE002814D14A46394650460BF09B
:1051600073FE00280DD133464246214650460BF0CF
:1051700029FE002805D129465046BDE8F0470BF02E
:105180004DBDBDE8F08710B5E82101200AF058FFB9
:10519000040003D00BF0DAFD204610BD002010BD46
:1051A00010B504460BF0C1FD2046BDE810400EF0DE
:1051B0008DBB1FB590F8D01011F00F010CD000225C
:1051C0000092019202920392C1F11002694684306A
:1051D00016F06EFD04B010BD0020FBE710B5054CC5
:1051E000B2F5807F03D10BF0C1FD002800D020462E
:1051F00010BD0000009FFFFF70B50F4C05462078E2
:1052000088B10EA0FEF7CEFA0DA0FEF7CBFA00F0A3
:10521000A3F9D4E902012A4602F092FA2846BDE831
:10522000704023F0FFBF074A07A109A0FEF7BAFAB2
:1052300003A0FEF7B7FAFEE79C0100200000000083
:105240000D0A0000EC9A0308696E69745F6F6B00C9
:105250002825732920686173206173736572742037
:105260006661696C65642061742025732E000000FE
:105270002DE9F0438946274905460C46D1E9023C11
:1052800091F80180A6780020D4E904140746B8F10B
:10529000000F13D09EB9204EB069286076690120B6
:1052A000361F8E4214D301EB0408B04510D3B9F178
:1052B000010F0DD9022001276E6009E046B19A4224
:1052C00001D21A4604E003EB0C06964200D23246A5
:1052D0000C4403EB0C0696421AD9D2F800C0ACF18C
:1052E00004035FEACC7C11D08B420FD39C420DD3D8
:1052F00010280BD2484509D2022804D11FB1D5F895
:1053000004C09C4502D045F82030401C121DE2E745
:10531000BDE8F0839C010020648202202DE9F04F5B
:105320008DB007460C4620225D4905A8FBF722F800
:105330005C4DD5E902608146287858B1687898B10B
:10534000574A59A1143A5BA0FEF72CFA61A0FEF768
:1053500029FAFEE7524A60A1143A56A0FEF722FA53
:105360005CA0FEF71FFAFEE74FF0010A85F801A0E6
:105370005BA0FEF717FA57A0FEF714FA00F0ECF85E
:10538000DFF81CB1ABF1BC0BDBF82800FEF70AFA22
:1053900050A0FEF707FA47F30010401C04F1200864
:1053A000E87001D008F14808B04503D306EB0900C6
:1053B000404501D285F802A042464946304602F0F7
:1053C000BFF9A878474D00283ED1DBF82C00FEF746
:1053D000E9F940A0FEF7E6F926682E60606868608B
:1053E000A268AA60E168E96023692B6163696B6167
:1053F000A369AB61E369EB61DDE90734CDE9000343
:105400000292CDE90341DDE90513324636A0FEF7ED
:10541000C9F930A0FEF7C6F901AE0B98EB690C9AFA
:10542000A96986E80F00686900900A9B2A692EA086
:105430000999FEF7B7F927A0FEF7B4F935A0FEF7F2
:10544000B1F924A0FEF7AEF94248006845F8200FF4
:105450004048001D007828713E4810300068A86060
:105460003C48401D007828733A4814300068286191
:105470003848801D0088A882364808300068A86136
:1054800034480C300088E8613248183000882862BF
:1054900005F032FF404623F0C5FE0DB0BDE8F08FA9
:1054A000149B03089C010020216F6E5F6661756C80
:1054B00074000000282573292068617320617373CC
:1054C000657274206661696C65642061742025735F
:1054D0002E0000000D0A0000696E69745F6F6B009A
:1054E0000000000064820220202025733A2025302D
:1054F0003878202025733A202530387820202573ED
:105500003A2025303878202025733A202530387805
:10551000000000003D3D3D3D3D3D3D3D3D3D3D3DAF
:105520003D3D3D3D3D3D3D3D3D3D3D3D3D3D3D3DAB
:105530003D3D3D3D3D3D3D3D3D3D3D3D3D3D3D3D9B
:105540003D3D3D3D3D3D3D3D3D3D3D3D3D3D3D3D8B
:105550003D3D000024ED00E010B50748074BA3F1E6
:1055600020020068A2F12001FEF71CF9BDE81040FE
:1055700003A0FEF717B90000589A0308B48102206F
:105580000D0A000070B50C461546014620220E4853
:10559000FAF734FF0C48202221462030FAF72EFF7C
:1055A0000948202229464030FAF728FF08480749D1
:1055B000084A8160511AC1600749084A0161511ABD
:1055C00041610121017070BD7481022030AD022063
:1055D0009C01002030B1022000000008281F0408B0
:1055E0002DE9F0438DB0884604466E4630213046A2
:1055F000FAF7E7FE002504F120091020211811F820
:10560000012D521C12F0FF020A7002D1401E002828
:10561000F4DC334622460121484609F075FF0700B5
:1056200018D110351036302DE7DB694618F8002008
:105630000B5C53400B54401C3028F7DB4FF4807256
:1056400048460AF08DF8070004D108AD95E80F0030
:1056500084E80F003021684616F0A4FA0DB03846F1
:10566000BDE8F0832DE9FF4F8FB09A46DDE91C9429
:105670009346242102A8FAF7A4FE02A9204616F0B8
:10568000EDF850B124A00090DDE90F0153465A46D1
:1056900000F05AF813B0BDE8F08F002502AC0DF110
:1056A0002C0800BF05EB450614F826000028F1D0B1
:1056B00004EB86074B46786800901CA210210BA8CB
:1056C000FEF780F800208DF83B0014F82600012832
:1056D0000DD0022815D017A00090DDE90F01534628
:1056E0005A4600F031F86D1C032DDBD3D2E7B868C1
:1056F0005346CDE90080DDE90F015A460CF060F910
:10570000F1E7B8685346CDE90080DDE90F015A465C
:105710000CF012F9E7E70000696E76616C696420AD
:10572000504B20636F6E746578740A00257325737F
:105730000000000073686F756C64206E6F742068E1
:10574000617070656E0A000038B5049C00940468AE
:1057500060692469A04738BD3EB50C460CA024F012
:1057600099FC24F0B7FC01460DA024F093FC206CBA
:105770000E4B0F22C16800780094CDE901010CA105
:1057800015A024F087FCBDE83E401FA024F082BC99
:105790001B0A5B33326D5B495D203E3E20000000FA
:1057A0005B54533A2025645D20000000349B0308BD
:1057B0002E2E5C6D717474636C69656E745C6D71B2
:1057C0007474636C69656E745C6D717474636C6918
:1057D000656E742E6300000025733A2564202573DE
:1057E00028292E2E2E0A746F7069633A2025732C97
:1057F00020716F733A2025642C200A6D65737361E4
:1058000067653A25730000001B5B306D00000000E7
:105810002DE9F0410546C06D1746C01DC4080E466F
:10582000A34200D81C4622463946304615F0E2F91C
:10583000070018D1E86DB0EBC40F06D2C0EBC4016D
:10584000304615F089FB07000DD105F14C010C46DF
:10585000304614F021FA002805DB3146224608467E
:1058600015F046FC07463846BDE8F0817CB5DDE919
:105870000645CDE900450CF005FA7CBD11461A46F7
:105880000CF044BA10B54FF4C07101200AF0D8FBF7
:10589000040003D00CF027FC204610BD002010BDF2
:1058A00010B504460CF018FC2046BDE810400EF080
:1058B0000DB870B50C461646054611460CF096FD1F
:1058C00006F1080104F180000CF090FD0021C1F107
:1058D0001E0004EB810255F8200044F82100C1F1BC
:1058E0001F0055F820005060C1F13E0054F82030F0
:1058F00005EB8100C0F88030C1F13F0354F823303C
:10590000C0F8843055F82130C0F800314368C0F841
:10591000043154F82100C2F800015068891CC2F813
:1059200004012029D3DB70BD0CF0E1BB0CF0EEBB11
:1059300070B50D461646044611460CF057FD06F1AB
:10594000080105F180000CF051FD06F1100104F58D
:1059500080700CF04BFD0020C0F15E0154F8211066
:1059600045F82010C0F15F0154F8212005EB8001BB
:105970004A60C0F13E0255F8223004EB800242F842
:10598000803FC0F13F0355F823305360C0F11E0241
:1059900054F82220C1F80021C0F11F02801C54F8E5
:1059A0002220C1F804212028D6DB70BD0CF0BCBB3E
:1059B0000CF0C9BB7CB5DDE90645CDE900450CF02E
:1059C000D0FB7CBD11461A460CF010BC10B58021EE
:1059D00001200AF035FB040003D00CF003FD204643
:1059E00010BD002010BD10B504460CF0F5FC20469B
:1059F000BDE810400DF06ABF0CF072BE0CF08FBE17
:105A000058B1026A002A0BD05379082B08D10968D3
:105A1000D269914204D100F0E7B902A0FDF7C2BEFD
:105A2000704700006E6574696620213D204E554C1C
:105A30004C0000002DE9FC4105001AD02C6AD4B1BD
:105A400000236382A16A4FF03C07B1F1FF3F4FF49E
:105A500080364FF001024FF6FF7012D01E31B1FBBD
:105A6000F7F1B14200D301460904090CA18207D025
:105A700007E029A000E02FA0FDF794FEBDE8FC811F
:105A8000A282E16AB1F1FF3F0CD01E31B1FBF7F108
:105A9000B14200D301460904090C618100D1628141
:105AA0006189E181216BB1F1FF3F0CD01E31B1FB67
:105AB000F7F1B14200D301460904090CA18100D1DC
:105AC000A281A18921826289A1898A4201D301B17F
:105AD0006381E17909B1206A08E0217F7F2901D83B
